:020000040800F2
:1000000088650020C9010008E10D00085D0A0008AC
:10001000DD0D000859030008FD1F00080000000066
:100020000000000000000000000000003116000881
:100030005D030008000000005D0E0008D91B0008E9
:10004000E3010008E3010008E3010008E301000800
:10005000E3010008E3010008E3010008E3010008F0
:10006000E3010008E3010008E3010008E3010008E0
:10007000E3010008E3010008E3010008E3010008D0
:10008000E3010008E3010008E3010008E3010008C0
:10009000E3010008E3010008E3010008E3010008B0
:1000A000E3010008E3010008E3010008E3010008A0
:1000B000391C0008E3010008E3010008E30100081F
:1000C000E3010008E3010008E3010008E301000880
:1000D000E3010008E3010008E3010008E301000870
:1000E000E3010008E3010008E3010008E301000860
:1000F000E3010008E3010008E3010008E301000850
:10010000E3010008E3010008E3010008E30100083F
:10011000E3010008E3010008E3010008E30100082F
:10012000E3010008E3010008E3010008E30100081F
:10013000E3010008E3010008E3010008E30100080F
:10014000E3010008E3010008E3010008E3010008FF
:10015000E3010008E3010008E3010008E3010008EF
:10016000E3010008E3010008E3010008E3010008DF
:10017000E3010008E3010008E3010008E3010008CF
:10018000E3010008E3010008E3010008E3010008BF
:10019000E3010008E3010008E3010008E3010008AF
:1001A000E3010008E3010008E3010008DFF80CD0D8
:1001B00000F060F800480047FD2600088865002030
:1001C00080F30888704700000648804706480047CB
:1001D000FEE7FEE7FEE7FEE7FEE7FEE7FEE7FEE7F7
:1001E000FEE7FEE7DD1B0008AD010008D2B201E02A
:1001F00000F8012B491EFBD270470022F6E710B52C
:1002000013460A4604461946FFF7F0FF204610BD84
:100210002DE9F05F0546002092469B46884606463B
:10022000814640241BE0284641464746224600F0CE
:1002300042F853465A46C01A914110D31146184607
:10024000224600F029F82D1A67EB01084F46224696
:100250000120002100F020F817EB00094E41201E7C
:10026000A4F10104DFDC484631462A464346BDE896
:10027000F09F0000064C074D06E0E06840F00103E7
:1002800094E8070098471034AC42F6D3FFF792FF8A
:100290005C2800087C280008202A04DB203A00FAA9
:1002A00002F1002070479140C2F1200320FA03F3CD
:1002B000194390407047202A04DB203A21FA02F0CB
:1002C0000021704721FA02F3D040C2F12002914090
:1002D00008431946704710B500220121880701F034
:1002E000B0FD00214FF0804001F0C5FC10BD1FB5EE
:1002F0004FF47A740121084600F0C2FDE00601F0D7
:10030000C7FC0020ADF80200ADF80800601E0190A7
:100310004720ADF800006946E00601F09DFD1C2075
:100320008DF80C000A208DF80D0000208DF80E00CD
:1003300001208DF80F0003A800F054FD0021E00615
:1003400001F088FD01221146900701F07AFD01219C
:10035000880701F090FC1FBD00BFFEE7704700005A
:1003600000B587B00121084600F07AFD012108465A
:1003700000F076FD0121480400F082FD07220221F1
:10038000204800F021FB072203211E4800F01CFB3F
:100390000420059002208DF8180000208DF81A0026
:1003A00002208DF8190001208DF81B0005A91548C1
:1003B00000F0C2FA0820059001208DF81A008DF88F
:1003C0001B0005A90F4800F0B7FA4FF4E130019087
:1003D0000020ADF80800ADF80A00ADF80C00ADF84B
:1003E00010000C20ADF80E0001A9074801F098FD9F
:1003F0000121054801F07BFD4021034801F06EFD1D
:1004000007B000BD000002400044004010B50446A3
:10041000240300F0EBF800F083F84FF400410C489F
:1004200000F0FEFA202000F0A3FEC4F3074000F025
:100430009FFEC4F3072000F09BFEE0B200F098FEA0
:100440004FF40041024800F0EDFA00F069F810BDE9
:10045000000002401CB50121084600F001FD4FF4E8
:100460000040009001208DF8040000208DF8060067
:1004700003208DF8050001208DF807006946054826
:1004800000F05AFA4FF40041024800F0CBFA00F0B5
:100490000BFE1CBD000002402DE9F04106460C4653
:1004A00017464FF40041114800F0BAFA032000F05B
:1004B0005FFEC4F3074000F05BFEC4F3072000F0CA
:1004C00057FEE0B200F054FE002505E0FF2000F0EA
:1004D0004FFE7055681C85B2BD42F7DB4FF40041FA
:1004E000024800F09FFABDE8F081000000000240E1
:1004F00010B500244FF40041084800F091FA05209F
:1005000000F036FEFF2000F033FE04464FF40041B9
:10051000024800F087FA204610BD000000000240AB
:1005200010B500BFFFF7E4FF00F001000028F9D18B
:1005300010BD00002DE9F05F81460F461646DFF83A
:10054000A8B04FEA1738C7F30B0ACAF58054A64281
:1005500000DC344644E04FEA08314FF480525846FC
:10056000FFF79AFF002508E00AEB05001BF80000E2
:10057000FF2800D003E0681C85B2A542F4DB00BF71
:10058000A54216DA4046FFF741FF002507E019F8BB
:10059000050005EB0A010BF80100681C85B2A542B5
:1005A000F5DB4FEA08314FF48052584600F030F83E
:1005B00004E022463946484600F02AF8A64200D117
:1005C0000FE008F101084FF0000AA1442744301B56
:1005D00086B2B6F5805F02DD4FF4805400E0344609
:1005E000B9E700BFBDE8F09F7805002010B54FF4D3
:1005F0000041064800F014FA062000F0B9FD4FF45F
:100600000041024800F00EFA10BD00000000024058
:100610002DE9F04107460E461446F0B2C0F580754C
:10062000AC4200DC254612E02A463146384600F04E
:1006300013F8AC4200D10BE02F442E44601B84B26F
:10064000B4F5807F02DD4FF4807500E02546EBE7CE
:1006500000BFBDE8F08100002DE9F04106460C46E0
:100660001746FFF7C3FF4FF40041114800F0D8F9D7
:10067000022000F07DFDC4F3074000F079FDC4F3D3
:10068000072000F075FDE0B200F072FD002504E0E7
:10069000705D00F06DFD681C85B2BD42F8DB4FF463
:1006A0000041034800F0BEF9FFF73AFFBDE8F081D2
:1006B0000000024001B500200099C1F309021AB1FF
:1006C000012202EB912000E0880A08BD1CB501213F
:1006D000082000F0C5FB0121042000F0C1FB01212E
:1006E000084600F0BDFB4FF46040009000208DF8FC
:1006F00004008DF8060003208DF8050001208DF818
:10070000070069461C4800F017F9402000900020BF
:100710008DF804008DF8060003208DF805000120F7
:100720008DF807006946154800F006F94FF440704F
:10073000009001208DF8040000208DF806000320B1
:100740008DF8050000208DF8070069460B4800F081
:10075000F3F84FF48070009000208DF804008DF8BD
:10076000060003208DF8050001208DF8070069467A
:10077000034800F0E1F81CBD000C024000080240F4
:10078000000002401CB50121082000F069FB4FF475
:100790008050009001208DF8040000208DF80600A4
:1007A00003208DF8050000208DF8070069460248F7
:1007B00000F0C2F81CBD0000000C0240F0B5ADF224
:1007C000444D00270020CDF84004CDF83C04CDF87E
:1007D0003804CDF83404CDF830044FF480610CA80F
:1007E000FFF70BFD43A207CA09AB07C341A207CA23
:1007F00006AB07C30024142101A8FFF7FEFC404EFE
:10080000012240490DF58860FFF746FE9DF840043F
:100810000A286BD101223B49491C0DF23C40FFF7ED
:100820003BFE01223749891C0DF58760FFF734FE36
:1008300001223449C91C0DF23440FFF72DFE01227C
:100840003049091D0DF58660FFF726FE9DF83C0432
:1008500000069DF8381440EA01409DF8341440EA3F
:1008600001209DF8301440EA01041CB900200DF26B
:10087000444DF0BD214609A800F0F2F822A000F096
:10088000CDFF09A800F0CAFF22A000F0C7FF204654
:10089000FFF710FF0446002518E024A000F0BEFF7B
:1008A0004FF48062224801680CA8FFF7F5FD4FF471
:1008B00080620CA9304601F0C7FE06F580661C4830
:1008C000006800F580601A4908606D1CA542E4D3F9
:1008D0000020CDF8400401220A490DF58860FFF799
:1008E00029FE14A000F09AFF012700E000273846F7
:1008F000BDE7000020202020202020202020000014
:1009000000000108E7FFEF010A0D2053697A653AFC
:10091000200000000A0D207570646174652E2E2E73
:100920002E2E2E2E2E2E2E2E000000002E00000029
:10093000600000200A0D0000F0B50A4600210023E7
:10094000002400BF3DE0012505FA01F3156805EA22
:1009500003049C4234D105684F000326BE40B543D2
:10096000056015794E00B540066835430560157978
:10097000012D02D01579022D16D185684F0003266E
:10098000BE40B543856055794E00B5408668354315
:100990008560456801268E40B54345604568967977
:1009A0008E40B6B235434560C5684F000326BE4051
:1009B000B543C560D5794E00B540C6683543C560BE
:1009C000491C1029BFD3F0BDF0B5002300244D070A
:1009D000ED0E02FA05F3CE1000F1200555F8265071
:1009E0004E07F70E0F26BE40B543CF1000F120068C
:1009F00046F82750CE1000F1200555F8265045EA5C
:100A00000304CE1000F1200545F82640F0BD024653
:100A1000002013690B400BB1012000E0002070475B
:100A2000418370470183704708B50020009004E0BF
:100A3000684600F0CDFE00B10AE00748406840F685
:100A4000B831884201DC012000E000200028EFD10D
:100A500000BF9DF8000008BD6800002000BFFEE751
:100A6000F0B5144A00250024002320E0B1FBF2F683
:100A7000303606F0FF0C2E466D1C00F806C0B1FBA8
:100A8000F2F602FB16110A26B2FBF6F26E1E865D26
:100A9000302E01D1012600E000260CB9012700E02C
:100AA00000273E400EB1002500E0641C5B1C0A2BB1
:100AB000DCD3F0BD00CA9A3B70B5A0B0002400257D
:100AC0008026FFF77BFEC5B2012D03D13AA000F0CE
:100AD000A5FE02E03EA000F0A1FE60E044480078E0
:100AE00010B1012859D118E042A000F097FE51A0A2
:100AF00000F094FE56A000F091FE5BA000F08EFE88
:100B00005FA000F08BFE64A000F088FE71A000F0F2
:100B100085FE01203649087040E076A000F07EFE98
:100B2000FFF782FF0446312C08D100207449087079
:100B300000F086FD73A000F071FE2DE0322C0ED186
:100B400079A000F06BFE7FA000F068FEFFF7C3FB0A
:100B50007D4801F05FFD7DA000F060FE1CE0332CBD
:100B600016D17FA000F05AFE8BA000F057FE802126
:100B7000684601F00BFE8F49684600F097FF0120A0
:100B80005F49087000F05CFD8BA000F047FE03E0B9
:100B9000332C01D101F08CFD00E000BF00BF8E4876
:100BA0004068B0F5967F01DC012000E000200028BD
:100BB00094D120B070BD00000D466C617368207543
:100BC000706461746520737563636573730A0D00E7
:100BD0000D466C61736820646F6E277420686176BF
:100BE00065204170706C69636174696F6E0A0D00F5
:100BF000380000200D2A2A2A2A2A2A2A2A2A2A2AC2
:100C00002A2A2A2A2A2A2A2A2A2A2A2A2A2A2A2A44
:100C10002A2A2A2A2A2A2A2A2A2A2A2A2A2A2A2A34
:100C20002A2A2A2A2A2A2A2A2A2A2A2A2A2A0D0A61
:100C300000000000312E556172742055706461749B
:100C400065204170706C69636174696F6E0D0A0094
:100C5000322E52756E20204170706C696361746928
:100C60006F6E0D0A00000000332E5561727420551E
:100C7000706461746520466F6E744C49420D0A00C1
:100C8000342E55617274205570646174652046502D
:100C900047410D0A000000002A2A2A2A2A2A2A2A65
:100CA0002A2A2A2A2A2A2A2A2A2A2A2A2A2A2A2AA4
:100CB0002A2A2A2A2A2A2A2A2A2A2A2A2A2A2A2A94
:100CC0002A2A2A2A2A2A2A2A2A2A2A2A2A2A2A2A84
:100CD0002A0D0A00706C656173652073656C65632D
:100CE000742031206F722032206F7220333A0D0A47
:100CF000000000002E2E2E2E2E2E0D0A00000000C9
:100D0000580000200D55617274205570646174653F
:100D1000204170706C69636174696F6E2046696E02
:100D20006973680A0D00000072756E20696E746F39
:100D3000204170706C69636174696F6E2E2E2E0D88
:100D40000A000000200D0A00000001086E6F2075E7
:100D50007365722050726F6772616D0D0A0A000030
:100D60000D504C6561736520696E70757420616407
:100D70006472A1A266696C6573697A65A1A2466F07
:100D80006E7468696768A1A2466F6E745769676878
:100D900074200A0D0000000077726974652066698E
:100DA0006C6520616464725B3078313038305D3A54
:100DB000203E2000781500200D556172742055707A
:100DC0006461746520466F6E744C49422046696EBA
:100DD0006973680A0D0000006800002000BFFEE78C
:100DE0007047000070B5002100230F22C4781CB3A7
:100DF000174C246804F4E064C4F5E064C4F30721EC
:100E0000C1F10404E3B20A4144789C40E1B2847821
:100E1000144021430C07210E0E4C057861550478CF
:100E200004F01F050124AC4005786D11AD0005F1FB
:100E3000E025C5F8004109E0047804F01F0501240D
:100E4000AC40054D0678761145F8264070BD00008F
:100E50000CED00E000E400E080E100E070470000FD
:100E600029B1064A12680243044B1A6004E0034A9F
:100E700012688243014B1A6070470000303802400C
:100E800029B1064A12680243044B1A6004E0034A7F
:100E900012688243014B1A607047000040380240DC
:100EA00029B1064A12680243044B1A6004E0034A5F
:100EB00012688243014B1A607047000020380240DC
:100EC00029B1064A12680243044B1A6004E0034A3F
:100ED00012688243014B1A607047000024380240B8
:100EE000F0B5002100220024022500260223324F03
:100EF0003F6807F00C0121B1042905D0082937D13A
:100F000005E02E4F076036E02D4F076033E02A4F93
:100F10003F1F3F68C7F38056274F3F1F3F6807F0CA
:100F20003F036EB1264FB7FBF3F7DFF88CC0ACF18F
:100F3000040CDCF800C0CCF3881C07FB0CF40CE0BC
:100F40001E4FB7FBF3F7DFF870C0ACF1040CDCF810
:100F500000C0CCF3881C07FB0CF4174F3F1F3F6801
:100F6000C7F301477F1C7D00B4FBF5F7076002E083
:100F7000124F076000BF00BF0F4F3F6807F0F0013E
:100F80000909104F7A5C0768D74047600A4F3F68ED
:100F900007F4E051890A0B4F7A5C4768D7408760B5
:100FA000054F3F6807F46041490B064F7A5C47687C
:100FB000D740C760F0BD0000083802400024F400AC
:100FC00040787D011400002070B505460C4606E00F
:100FD000284600F0FDFB012801D1002070BD201E35
:100FE000A4F10104F4D1401EF8E72DE9F8430446CA
:100FF0000D4690460020286041466846FFF7E4FF12
:1010000018B14FF0FF30BDE8F8839DF800001828B4
:1010100013D006DC012809D0022809D0042820D1E9
:1010200009E041281AD061281BD118E080271BE075
:101030004FF4806718E00020E5E741466846FFF777
:10104000C3FF40B99DF80000182804D14FF0FF30CD
:1010500028600020D7E74FF0FF30D4E700BF012021
:10106000D1E74FF0FF30CEE700BF9DF800002070C1
:10107000012609E0A0194146FFF7A6FF10B14FF085
:10108000FF30C0E7701C86B2781D8642F2DB6178C3
:10109000A07880F0FF00814202D04FF0FF30B2E72D
:1010A0002F600020AFE7000000B587B001210220CB
:1010B000FFF7D6FE0121C803FFF7E2FE0622032157
:1010C0002948FFF781FC062204212748FFF77CFC12
:1010D000062205212448FFF777FC08200090022013
:1010E0008DF8040003208DF8050000208DF806001F
:1010F00002208DF8070069461B48FFF71DFC1020F1
:10110000009069461848FFF717FC202000906946B8
:101110001548FFF711FC154800F060F80020ADF805
:101120000800ADF80C004FF48270ADF80A00002002
:10113000ADF80E00ADF810004FF40070ADF81200DD
:101140000820ADF814000020ADF816000720ADF817
:10115000180002A9054800F0A7F80121034800F093
:1011600031F807B000BD000000040240003C004020
:1011700070B50446C82505E0281EA5F10101CDB2D1
:1011800000D170BD02210E4800F080F80028F3D095
:1011900021460B4800F086F8C82505E0281EA5F179
:1011A0000101CDB200D1ECE70121054800F06EF855
:1011B0000028F3D0024800F072F8C0B2E1E7000066
:1011C000003C004021B1028842F04002028004E06D
:1011D00002884FF6BF731A400280704710B504466C
:1011E0002448844208D101218014FFF769FE0021C0
:1011F000A014FFF765FE3CE01F48844208D101219E
:101200000014FFF74DFE00212014FFF749FE30E0E7
:101210001A48844208D10121C013FFF741FE002182
:10122000E013FFF73DFE24E01548844208D1012178
:101230004014FFF745FE00216014FFF741FE18E05F
:101240001048844209D101210805FFF739FE002129
:101250004FF48010FFF734FE0BE00B48844208D1B6
:1012600001214805FFF72CFE00214FF40010FFF785
:1012700027FE10BD0030014000380040003C004017
:10128000003401400050014000540140024600205B
:1012900013890B400BB1012000E00020704701468C
:1012A000888970478181704710B50022028802F456
:1012B00041520B884C8823438C882343CC8823439A
:1012C0000C8923434C8923438C892343CC892343B2
:1012D0001A430280838B4FF2FF74234083830B8A6F
:1012E000038210BD70B505460024194800F010F9BE
:1012F000044654BB1748006820F440701549086044
:101300000846006840F4007008600846006820F055
:10131000F80008600846006840EAC5000860084612
:10132000006840F0020008600846006840F4803021
:101330000860074800F0ECF80446012C05D0054889
:10134000006820F0020003490860204670BD0000DC
:10135000400D0300103C024001463A48814201D250
:10136000002070473848814201D20120F9E7374810
:10137000814201D20220F4E73548814201D20320A4
:10138000EFE73448814201D20420EAE73248814243
:1013900001D20520E5E73148814201D20620E0E78D
:1013A0002F48814201D20720DBE72E48814201D23B
:1013B0000820D6E72C48814201D20920D1E72B48EA
:1013C000814201D20A20CCE7B1F1016F01D20B209A
:1013D000C7E72748814201D20C20C2E72548814255
:1013E00001D20D20BDE72448814201D20E20B8E78A
:1013F0002248814201D20F20B3E72148814201D225
:101400001020AEE71F48814201D21120A9E71E48F3
:10141000814201D21220A4E71C48814201D213204C
:101420009FE71B48814201D214209AE71948814264
:1014300001D2152095E71848814201D2162090E785
:1014400017208EE7004000080080000800C0000858
:10145000000001080000020800000408000006085F
:101460000000080800000A0800000C0800000E0830
:10147000004010080080100800C01008000011088B
:1014800000001208000014080000160800001808E8
:1014900000001A0800001C0800001E0800210E4869
:1014A000016801F4803008B10120704701F010009C
:1014B00008B10220F9E701F0200008B10220F4E7AA
:1014C00001F0400008B10220EFE701F0800008B110
:1014D0000220EAE70020E8E70C3C024003480068ED
:1014E00040F000400149086070470000103C024095
:1014F0000146086870470000024803490860034835
:101500000860704723016745043C0240AB89EFCD7A
:1015100070B5044600BFFFF7C1FF0546012D00D09E
:1015200005E00A2001F024F8641E002CF3D100BF6E
:1015300004B9FF25284670BD2DE9F04704460E4644
:1015400017464FF000080025A946B4F1006F02D3FA
:1015500004F0030008B1BDE8F087FFF7CDFF1D4898
:10156000006820F480601B490860254604EB870969
:101570001948854214D210E02846FFF7B9FF401CF5
:1015800050B12846FFF7E8FE8246FFF7ABFE8046E3
:10159000B8F1000F01D002E02D1D4D45ECD300BF86
:1015A000B8F1000F0BD107E02046316800F016F8C3
:1015B00000B103E0241D361D4C45F5D300BF05489E
:1015C000006840F4806003490860FFF787FF00BFB0
:1015D000C1E70000003C02400000FF1F70B5054657
:1015E0000E46FF20FFF794FF0446E4B90F48006859
:1015F00020F440700D4908600846006840F400700F
:1016000008600846006840F0010008602E60FF2076
:10161000FFF77EFF0446012C05D00448006820F047
:10162000010002490860204670BD0000103C0240E5
:10163000704710B50446204600F0E0F8002010BDC9
:101640003EB51DA207CA8DE8070000241DA000F0CA
:10165000E5F82B4800F0D4FC0446002C16DD2948A0
:1016600000F0DCF8284800F0D9F821466846FFF77A
:10167000F7F926A000F0D2F8684600F0CFF826A0CF
:1016800000F0CCF827A000F0C9F814E0601C18B9ED
:101690002AA000F0C3F80EE0A01C18B937A000F093
:1016A000BDF808E0E01C18B93BA000F0B7F802E074
:1016B0003FA000F0B3F83EBD2020202020202020B5
:1016C0002020000057616974696E6720666F722080
:1016D0007468652066696C6520746F20626520738C
:1016E000656E74202E2E2E2028707265737320274D
:1016F000612720746F2061626F7274290A0D0000E7
:101700003E00002008280008780000200A0D205321
:10171000697A653A200000002042797465730D0AE9
:10172000000000002D2D2D2D2D2D2D2D2D2D2D2D9D
:101730002D2D2D2D2D2D2D0A000000000A0A0D54EF
:10174000686520696D6167652073697A65206973D2
:1017500020686967686572207468616E20746865C6
:1017600020616C6C6F776564207370616365206DB8
:10177000656D6F7279210A0D000000000A0A0D568E
:101780006572696669636174696F6E206661696C10
:101790006564210A0D0000000D0A0A41626F72742F
:1017A000656420627920757365722E0A0D00000051
:1017B0000A0D4661696C656420746F20726563650B
:1017C000697665207468652066696C65210A0D007C
:1017D00010B504462021084800F095FB48B10648A2
:1017E000001D008820702021034800F077FB0120B5
:1017F00010BD0020FCE700000044004010B5044686
:101800002146054800F0F6FB00BF8021024800F0A9
:101810007AFB0028F9D010BD0044004010B5044602
:1018200003E02078FFF7EAFF641C20780028F8D155
:1018300010BD00000CB500200190009041480068E8
:1018400040F480303F49086000BF3E48006800F423
:10185000003000900198401C0190009818B9019840
:10186000B0F5A04FF1D13748006800F4003010B156
:101870000120009001E0002000900098012860D134
:1018800030484030006840F080502E4940310860B8
:101890002D48006840F440402B4908602948083032
:1018A00000682849083108600846006840F4004094
:1018B00008600846006840F4A05008602348091FEB
:1018C0000860081F006840F08070091F086000BFB2
:1018D0001C48006800F000700028F9D01A48006821
:1018E00040F480301849086000BF1748406800F491
:1018F00080300028F9D01448006840F400301249C4
:10190000086000BF1048406800F400300028F9D09B
:1019100040F205700E4908600A480830006820F05F
:1019200003000849083108600846006840F00200DA
:10193000086000BF03480830006800F00C00082869
:10194000F8D10CBD0038024000700040195A400721
:10195000003C02401CB501210820FFF781FA01215B
:101960000420FFF77DFA01210820FFF779FA012111
:101970000820FFF775FA4FF40040009001208DF821
:10198000040000208DF806008DF8070002208DF875
:10199000050069462448FEF7CFFF40200090002054
:1019A0008DF804008DF8060001208DF80700022054
:1019B0008DF8050069461D48FEF7BEFF4FF4005044
:1019C000009001208DF8040000208DF80600012011
:1019D0008DF8070002208DF8050069461248FEF7D1
:1019E000ABFF4FF48040009001208DF804000020F0
:1019F0008DF806008DF8070002208DF80500694675
:101A00000948FEF799FF4FF400510748FFF70AF81D
:101A10004FF400410448FFF703F84FF480410248B7
:101A2000FFF700F800BF1CBD000C02400008024098
:101A300070B50446002500264FF400411848FEF713
:101A4000EFFF00BF28E004F0800028B14FF4005100
:101A50001348FEF7E7FF04E04FF400511048FEF78B
:101A6000DFFF6006040E00F01FF84FF400410C4841
:101A7000FEF7D8FF6806050E40210A48FEF7C7FFAB
:101A800008B1681CC5B200F00FF84FF400410448DB
:101A9000FEF7C6FF701CC6B2082ED4DB284670BD08
:101AA000000C02400008024000BF704770B50246BB
:101AB0000C460021002500231078302843D15078AF
:101AC000782802D0507858283DD1907808B9002065
:101AD00070BD022130E0505C10B9236001252DE07B
:101AE000505C412802DB505C46280BDD505C6128CD
:101AF00002DB505C662805DD505C302819DB505C49
:101B0000392816DC505C302805DB505C392802DCB3
:101B1000505C30380AE0505C412805DB505C4628B8
:101B200002DC505C373801E0505C573800EB03139F
:101B300001E0002502E0491C0B29CCD300BF0B2992
:101B400034D3002532E000212AE0505C10B9236034
:101B5000012527E0505C6B2802D0505C4B2804D153
:101B600019B19B02236001251CE0505C6D2802D056
:101B7000505C4D2804D119B11B052360012511E0EB
:101B8000505C302809DB505C392806DC505C30386A
:101B900003EB830600EB460301E0002502E0491C4D
:101BA0000B29D2D300BF0B2900D3002528468FE78D
:101BB000042808D14FF0E021096941F004014FF0F9
:101BC000E022116107E04FF0E021096921F00401F2
:101BD0004FF0E022116170477047000010B51248C5
:101BE000006840F001001049086000200E490831EB
:101BF00008600D4800680D4908400B4908600C4812
:101C0000091D0860081F006820F48020091F086073
:101C1000002005490C310860FFF70CFE4FF0006012
:101C20000449086010BD000000380240FFFFF6FEC6
:101C30001030002408ED00E010B5002401218807D1
:101C400000F0EEF8012810D10121800700F010F813
:101C500000BF08E0054850F82400401C034941F843
:101C60002400601C84B2042CF4DB10BD680000204A
:101C7000CA430282704721B1028842F00102028009
:101C800004E002884FF6FE731A400280704700009D
:101C900010B504465548844208D101210846FFF793
:101CA0000FF900210120FFF70BF99DE0B4F1804FFF
:101CB00008D101210846FFF7F3F800210120FFF7C2
:101CC000EFF891E04A48844208D101210220FFF751
:101CD000E7F800210220FFF7E3F885E04548844259
:101CE00008D101210420FFF7DBF800210420FFF7D1
:101CF000D7F879E04048844208D101210820FFF755
:101D0000CFF800210820FFF7CBF86DE03B48844274
:101D100008D101211020FFF7C3F800211020FFF7A0
:101D2000BFF861E03648844208D101212020FFF746
:101D3000B7F800212020FFF7B3F855E0314884427E
:101D400008D101210220FFF7BBF800210220FFF794
:101D5000B7F849E02C48844209D101210804FFF773
:101D6000AFF800214FF48030FFF7AAF83CE0274895
:101D7000844209D101214804FFF7A2F800214FF461
:101D80000030FFF79DF82FE02148844209D101215E
:101D90008804FFF795F800214FF48020FFF790F8B2
:101DA00022E01C48844208D101214020FFF778F846
:101DB00000214020FFF774F816E01748844208D14C
:101DC00001218020FFF76CF800218020FFF768F8E0
:101DD0000AE01248844207D101218015FFF760F81C
:101DE0000021A015FFF75CF810BD000000000140C5
:101DF0000004004000080040000C004000100040BB
:101E00000014004000040140004001400044014033
:101E10000048014000180040001C00400020004025
:101E200030B50246002000230024158A05EA01038C
:101E3000958905EA010413B10CB1012000E00020EE
:101E400030BD1AB183890B43838102E083898B43C0
:101E5000838170474162704700220288184B984284
:101E60000ED0184B98420BD0B0F1804F08D0164BD3
:101E7000984205D0154B984202D0154B984204D198
:101E80004FF68F731A404B881A43124B984207D073
:101E9000114B984204D04FF6FF431A400B891A4366
:101EA00002804B68C3620B880385054B984202D0C1
:101EB000044B984201D18B7A0386012383827047B9
:101EC0000000014000040140000400400008004000
:101ED000000C0040001000400014004001F40072AB
:101EE000B2F5007F00D100BFCA430280704721B124
:101EF000828942F40052828104E082894DF6FF73A8
:101F00001A408281704702460020B1F5007F00D15F
:101F100000BF13880B400BB1012000E00020704788
:101F20002DE9FF4705460E460024A14600BFA04606
:101F3000B08900B100BF2C8A24F44054F0880443D7
:101F40002C82AC8941F20C608443B088318908430B
:101F5000718908430443AC81AC8A24F44074B0898D
:101F60000443AC826846FEF7BBFF2048854202D09E
:101F70001F48854202D1DDF80C9001E0DDF80890A1
:101F8000A88900F4004040B109EBC90000EB09103A
:101F900031684900B0FBF1F707E009EBC90000EB3D
:101FA000091031688900B0FBF1F76420B7FBF0F04D
:101FB00004012009642101FB1078A88900F4004085
:101FC00040B1322000EBC800B0FBF1F000F0070098
:101FD000044308E0322000EB08106421B0FBF1F06C
:101FE00000F00F0004432C81BDE8FF870010014082
:101FF00000140140C1F308028280704700BFFEE771
:102000002DE9F04FADF2244D0746002000906F48B7
:102010006F4908604FF0000A4FF00008002001905F
:1020200000BF0026B346B94600BF4FF4801202A994
:1020300007A8FEF7DAFF10B101287DD199E04FF033
:1020400000080298B0F1FF3F01D070B907E0062008
:10205000FFF7EFFA00200DF2244DBDE8F08F0620C7
:10206000FFF7E7FA4FF0010B81E09DF81D00F1B298
:10207000884203D01520FFF7DCFA78E0002E4BD120
:102080009DF81F00002840D000250DF11F0405E039
:1020900014F8012B28466D1C4E490A54207808B1CB
:1020A000FF2DF5DD002228466D1C4A490A54002503
:1020B000641C05E014F8012B28466D1C03A90A5482
:1020C0002078202801D0102DF4DB002228466D1C3A
:1020D00003A90A54694603A8FFF7E8FC3E480078C4
:1020E00060B90098B0F5801F08DB1820FFF7A1FA4F
:1020F0001820FFF79EFA4FF0FF30ACE70620FFF7FD
:1021000098FA4320FFF795FA2EE00620FFF791FAA0
:102110004FF0010BDA462AE02F48007878B90DF12C
:102120001F012B48029A006800F08EFA28480068C8
:1021300002990844264900E024E0086011E026489E
:10214000007801280DD1029882B2244801680DF16F
:102150001F00FEF7EFF921480068029908441F4963
:1021600008600620FFF765FA761C0120019000BF89
:102170001CE01820FFF75DFA1820FFF75AFA6FF0FD
:10218000020068E70198002801DD08F10108B8F1B4
:10219000050F07DD1820FFF74CFA1820FFF749FA62
:1021A000002058E74320FFF744FA00BF00BFBBF10F
:1021B000000F3FF43AAF00BF00BFBAF1000F3FF489
:1021C00030AF00BF00BF009845E7000000000108E5
:1021D00040000020780000205800002078150020E2
:1021E0000FB4054B10B503A9044A029800F018F883
:1021F00010BC5DF814FB00000126000864000020FC
:1022000002E008C8121F08C1002AFAD170477047BF
:10221000002001E001C1121F002AFBD1704700001D
:102220002DE9FF4F8DB09B460F460446002606E081
:1022300025280BD05A460F999047641C761C2078AD
:102240000028F5D111B03046BDE8F08F0025A84632
:102250000122984900E0054314F8013F203B02FAAF
:1022600003F00842F7D120782E2817D114F8010F77
:1022700045F004052A280ED06FF02F022078A0F137
:10228000300109290AD808EB880102EB410100EB73
:102290000108641CF2E757F8048B641C20786C2852
:1022A0000DD004DC4C2812D06A2811D104E0742827
:1022B0000DD07A280CD10AE045F4001507E06178CA
:1022C00045F48015814202D1641C05F58015641C1B
:1022D0002278692A45D008DC002AB3D0582A69D070
:1022E000632A10D0642A08D13BE0702A67D0732A91
:1022F00013D0752A5CD0782A5CD010465A460F99C4
:102300009047761CD3E017F8040B8DF800000020EE
:102310008DF80100E946012003E057F8049B4FF0D7
:10232000FF3069074FF0000501D40AE06D1C4545F8
:102330000DDA8542FADB19F805100029F6D106E01E
:102340006D1C8542FCDB19F805100029F8D12E44DC
:1023500004E019F8010B5A460F9990476D1EF8D208
:10236000A5E00A200021CDE90801C5F302500228AA
:102370000DD001CFC117031E71F100030DDA4FF02C
:10238000000CD0EB0C006CEB01012D2308E0FF1DCD
:1023900027F00707F7E80201EDE72B0504D52B230B
:1023A0008DF8283001233BE0EB0739D02023F7E7F5
:1023B0000A2000E010200021CDE9080107E01020EC
:1023C000002145F00405CDE908014FF00808C5F3E8
:1023D000025002280FD001CF00214FF0000A2B0736
:1023E0001FD5702A0DD0DDE908C38CF0100C5CEA13
:1023F000030C0CD015E0FF1D27F00707F7E80201DA
:10240000EBE740228DF828204FF0010A0BE050EA5C
:10241000010306D030238DF828308DF829200223BF
:102420009A46582A04D024A20DF120090B9209E003
:1024300026A2F9E7DDE90823FDF7EAFE0B9B9B5C8A
:1024400009F8013D50EA0102F4D1ADEB090020305A
:102450000890680701D44FF001080899884502DD0B
:10246000A8EB010000E000208046002506E00AA855
:102470005A46405D0F9990476D1C761C5545F6DB1A
:1024800004E030205A460F999047761CB8F10001BD
:10249000A8F10108F5DC05E019F8010B5A460F997F
:1024A0009047761C0899481E08900029F4DC641CAB
:1024B000C5E60000092801003031323334353637A3
:1024C0003839616263646566000000003031323380
:1024D0003435363738394142434445460000000020
:1024E00010B56FF00400FFF763FB0A4800680A4963
:1024F000B0FBF1F0094908700846007800EB400194
:10250000C1EBC0104FF6FF7101EAC000044908801A
:1025100010BD00000000002000127A003A000020E8
:102520003C0000200146114A12884A434FF0E02344
:102530005A6100229A611A46126942F001021A6138
:1025400000BF4FF0E022106900F001021AB100F460
:102550008032002AF5D04FF0E022126922F0010209
:102560004FF0E0231A6100229A6170473C0000207E
:102570000146114A12784A434FF0E0235A61002283
:102580009A611A46126942F001021A6100BF4FF0C7
:10259000E022106900F001021AB100F48032002A32
:1025A000F5D04FF0E022126922F001024FF0E02353
:1025B0001A6100229A6170473A00002070B5002429
:1025C000AB2500264FF480410C48FEF729FA284637
:1025D000FFF72EFA3046FFF72BFA3046FFF728FABE
:1025E0003046FFF725FAFF20FFF722FA04464FF4A2
:1025F00080410248FEF716FA204670BD000C0240EA
:1026000038B504468DF8000069460320ABBE20466D
:1026100038BD000010B50446206809490840B0F1F3
:10262000005F09D16068074908602068FDF7C8FDB0
:1026300004480068804701E0012010BD00BFFCE7AE
:102640000000F02F5C0000202DE9F05F074688466F
:1026500091460025BB464446AA461DE0E0780606A2
:10266000A07846EA0046607846EA002620780643CD
:10267000241D2846691C8DB20C4941F82060B5F52F
:10268000807F07D100254FF480725846FEF754FF33
:102690000BF5806B0AF1040ACA45DFD325B12A463F
:1026A00002495846FEF748FFBDE8F09F7801002038
:1026B00010B50024FEF70AF84FF400710A48FEF73F
:1026C000B1F94FF480710848FEF7AAF9FFF742F913
:1026D0004FF4FA60FFF726FFFFF770FF044621462C
:1026E00002A0FFF77DFD10BD0008024073696C6910
:1026F000636F6E2049443A25780A0000FDF730FEEA
:10270000FDF7A8FEFDF7F3FDFFF7EAFEFEF73AF846
:102710004FF480510948FEF785F9FFF7C9FF08A07B
:10272000FFF77CF8FEF7C8F9FDF7D5FD0B48FFF77A
:1027300071FF0BA0FFF772F800BFFEE7000C02402C
:1027400048616E6473657420626F6F746C6F61644E
:1027500065722056312E300D0A000000000001087D
:102760006E6F20757365722050726F6772616D0DA8
:102770000A0A000008B50020009000BF6846FFF775
:1027800027F80028FAD09DF8000008BD2DE9F04197
:1027900006460F46002500BFFFF7ECFF04460D2C50
:1027A00000D125E0082C0BD155B16D1E2046FFF756
:1027B00025F82020FFF722F82046FFF71FF8EBE767
:1027C0005B2C09D1FFF7D6FF0446412C04D16D1EC6
:1027D0000020FFF713F8DFE7202C08DB781EA84263
:1027E00005DD28466D1C34542046FFF707F8D3E773
:1027F00000BF002070550A20FFF700F80D20FEF7FB
:10280000FDFF0120BDE8F0810A0A0D2050726F67BC
:1028100072616D6D696E6720436F6D706C65746574
:1028200064205375636365737366756C6C79210AF4
:102830000D2D2D2D2D2D2D2D2D2D2D2D2D2D2D2DE8
:102840002D2D2D2D2D2D2D2D2D2D2D2D2D2D2D2DB8
:102850002D0D0A204E616D653A2000007C2800088D
:10286000000000206800000000220008E4280008A2
:102870006800002020650000102200080095BA0AB8
:102880000000000000000000010203040607080920
:102890000000000001020304010203040607080906
:1028A0000000000000000000000000000000000028
:1028B000000000000000000000000000000001080F
:1028C00000080000000000000000000009000000F7
:1028D0000000000000000000000000000000F00107
:0428E00000000000F4
:04000005080001AD41
:00000001FF
